:100000000C942A000C9434000C9434000C943400AA
:100010000C9434000C9434000C9434000C94340090
:100020000C9434000C9434000C9434000C94340080
:100030000C9434000C9434000C9434000C94340070
:100040000C9434000C9434000C9434000C94340060
:100050000C94340011241FBECFE5D8E0DEBFCDBF25
:100060000E9436000C944E000C9400008FE08ABB76
:1000700061E048EC50E06BBB20E030E08BB3880FD0
:100080008BBB80E197E2FA013197F1F70197D9F73D
:100090002F5F3F4F2430310589F7EDCFF894FFCF24
:00000001FF
